:100000000C9467000C948F000C948F000C948F005C
:100010000C948F000C948F000C944D0B0C948F005B
:100020000C948F000C948F000C948F000C948F0014
:100030000C948F000C948F000C948F000C948F0004
:100040000C94A4020C948F000C9414030C94EE02F4
:100050000C948F000C948F000C948F000C948F00E4
:100060000C948F000C948F009D079D079D076807D7
:10007000C007CF079D079D076807C0070000000065
:10008000240027002A0000000000250028002B0083
:10009000040404040404040402020202020203032E
:1000A0000303030301020408102040800102040836
:1000B00010200102040810200000000800020100C6
:1000C00000030407000000000000000011091124D3
:1000D0001FBECFEFD8E0DEBFCDBF11E0A0E0B1E0A2
:1000E000ECE7F1E202C005900D92A034B107D9F718
:1000F00022E0A0E4B1E001C01D92AC36B207E1F706
:1001000010E0C7E6D0E004C02197FE010E94800FF6
:10011000C636D107C9F70E9405080C94BC100C9490
:100120000000E0917201F09173018081811103C0A0
:100130008FEF9FEF0CC0E0917201F0917301058089
:10014000F681E02D0680F781E02D828193819093E6
:100150006801809367010895CF92DF92EF92FF923A
:100160000F931F93CF93DF936C017A018B01C0E053
:10017000D0E0CE15DF0581F0D8016D918D01D6015B
:10018000ED91FC910190F081E02DC6010995892B3C
:1001900011F02196EECF7E01C701DF91CF911F9123
:1001A0000F91FF90EF90DF90CF900895089580E039
:1001B00090E00895FC01538D448D252F30E0842F6D
:1001C00090E0821B930B541710F0CF96089501977F
:1001D0000895FC01918D828D981761F0828DDF0169
:1001E000A80FB11D5D968C91928D9F5F9F73928F2A
:1001F00090E008958FEF9FEF0895FC01918D828D1F
:10020000981731F0828DE80FF11D858D90E00895EB
:100210008FEF9FEF0895FC01918D228D892F90E043
:10022000805C9F4F821B91098F739927089588EBFB
:1002300091E00E940B0121E0892B09F420E0822F3C
:100240000895FC01848DDF01A80FB11DA35ABF4F93
:100250002C91848D90E001968F739927848FA689C5
:10026000B7892C93A089B1898C91837080648C9319
:10027000938D848D981306C00288F389E02D8081C8
:100280008F7D80830895EF92FF920F931F93CF93FA
:10029000DF93EC0181E0888F9B8D8C8D981305C0D6
:1002A000E889F989808185FD26C0F62E0B8D10E046
:1002B0000F5F1F4F0F731127E02E8C8DE8120CC0BB
:1002C0000FB607FCFACFE889F989808185FFF5CF61
:1002D000CE010E942101F1CF8B8DFE01E80FF11DAF
:1002E000E35AFF4FF0829FB7F8940B8FEA89FB899E
:1002F000808180620AC09FB7F894EE89FF8960838D
:10030000E889F98980818370806480839FBF81E060
:1003100090E0DF91CF911F910F91FF90EF900895A2
:10032000CF93DF93EC01888D8823C9F0EA89FB899C
:10033000808185FD05C0A889B9898C9186FD0FC093
:100340000FB607FCF5CF808185FFF2CFA889B98968
:100350008C9185FFEDCFCE010E942101E7CFDF9187
:10036000CF91089580E090E0892B29F00E94170139
:1003700081110C940000089580915F01882309F198
:100380000FB6F8940F92E0918201F0918301C6813B
:10039000D781CE0102960E94500B8091B701815007
:1003A0008093B70180915F01815080935F010F902E
:1003B0000FBE8F89988D0E94BE0DCE010E94BE0D8A
:1003C000DBCF80918F01823010F00E94950B0E944C
:1003D000B201D2CF0E94A7100F931F9300E010E04C
:1003E00022E040E850E068E171E08AE792E00E9494
:1003F000ED0D21E040E850E06EE171E086E092E032
:100400000E94ED0D1F910F910C948F03CF93DF93FA
:10041000CDB7DEB7A1970FB6F894DEBF0FBECDBF44
:100420000E948F0380E4B82E9AE0C92ED12CE12CD3
:10043000F12C89E291E00E94B70380E391E00E94F1
:10044000B703B0927C0080917A00806480937A0038
:1004500080917A0086FDFCCF809178002091790010
:1004600090E0922B2C01092E000C6608770897FF6C
:1004700020C06DE288EB91E00E94430122273327E0
:10048000A901241935094609570919A28E010F5DE2
:100490001F4FCA01B901A70196010E945E0F605D5E
:1004A000F80162938F01211531054105510589F746
:1004B00015C0A301920119A28E010F5D1F4FCA0141
:1004C000B901A70196010E945E0F605DF801629379
:1004D0008F01211531054105510589F7C8010E9499
:1004E000B70380E391E00E94B70381E090E00E94AF
:1004F000F0079FCFE1EBF0E02491EDE9F0E084918B
:10050000882399F090E0880F991FFC01E458FF4F71
:10051000A591B491FC01EA57FF4F859194918FB753
:10052000F894EC91E22BEC938FBF81E00E9446039C
:100530008EE390E00E94F00780E00E9446038EE385
:1005400090E00E94F007F1CF1F920F920FB60F922A
:1005500011242F933F938F939F93AF93BF938091D9
:100560005B0190915C01A0915D01B0915E013091C1
:100570005A0123E0230F2D3720F40196A11DB11D50
:1005800005C026E8230F0296A11DB11D20935A0134
:1005900080935B0190935C01A0935D01B0935E0139
:1005A0008091560190915701A0915801B091590145
:1005B0000196A11DB11D8093560190935701A09300
:1005C0005801B0935901BF91AF919F918F913F9185
:1005D0002F910F900FBE0F901F9018951F920F92A2
:1005E0000FB60F9211242F933F934F935F936F9306
:1005F0007F938F939F93AF93BF93EF93FF9388EB7A
:1006000091E00E942101FF91EF91BF91AF919F91E5
:100610008F917F916F915F914F913F912F910F90AB
:100620000FBE0F901F9018951F920F920FB60F924A
:1006300011242F938F939F93EF93FF93E091C80121
:10064000F091C9018081E091CE01F091CF0182FD4E
:1006500012C090818091D1018F5F8F732091D20160
:10066000821751F0E091D101F0E0E854FE4F958FF0
:100670008093D10101C08081FF91EF919F918F9173
:100680002F910F900FBE0F901F901895E5ECF0E0A2
:100690009491E1EBF0E02491EDE9F0E0E491EE23B8
:1006A00009F43CC0992339F1933091F038F491303A
:1006B000A9F0923001F594B59F7D12C0973091F06A
:1006C0009830A1F09430B9F4909180009F7D03C0E0
:1006D000909180009F77909380000DC094B59F7794
:1006E00094BD09C09091B0009F7703C09091B00075
:1006F0009F7D9093B000F0E0EE0FFF1FEA57FF4F91
:10070000A591B4919FB7F894811104C08C91209564
:10071000282302C0EC912E2B2C939FBF0895E8EB69
:10072000F1E0A089B18982E08C93A485B5851C9203
:10073000A685B7858FEC8C93108EA489B58986E049
:100740008C93A289B3898C9180618C93A289B3899F
:100750008C9188608C93A289B3898C9180688C93EA
:100760000288F389E02D80818F7D80830895009732
:1007700069F0FC0101900020E9F73197AF01481BB7
:10078000590BBC0188EB91E00C94AC0080E090E048
:1007900008950FB6F8940F9280916D0190916E01BB
:1007A0000F900FBE0895FC01738362839187808749
:1007B0004617570778F0421B530B848595854817D9
:1007C0005907C8F4BF016E5F7F4F8091620190911D
:1007D00063010DC04217530718F46217730758F4EA
:1007E000BF016E5F7F4F80916401909165010E940F
:1007F000520C80E0089581E00895EF92FF920F93EC
:100800001F93CF93DF93E0916401F09165018081A4
:10081000882369F10580F681E02D00811181C68170
:10082000D7817E0182E0E80EF11CC7010E94500BC7
:10083000E989FA89CE0109958E85813021F78C8569
:100840009D85800F911F0817190760F49B838A8389
:10085000D987C887B70180916401909165010E9492
:10086000520CD1CFB801CE010E94870DCCCF809120
:100870006201909163019093650180936401F0930C
:100880006301E0936201DF91CF911F910F91FF907F
:10089000EF900895FF920F931F93CF93DF93EC0196
:1008A000F62E00916D0110916E018091B50190912D
:1008B000B60102960E94500BCF3F8FEFD80789F404
:1008C000FF2079F06091B5017091B6016E5F7F4FA6
:1008D00084E791E0DF91CF911F910F91FF900C94ED
:1008E000740BC00FD11FE091B501F091B601D38315
:1008F000C2836091B5017091B601C017D10768F449
:1009000080917001909171016E5F7F4FDF91CF9167
:100910001F910F91FF900C94520C80917201909155
:1009200073016E5F7F4F0E94520C8091670190911E
:100930006801C817D90720F4D0936801C0936701F4
:10094000DF91CF911F910F91FF900895FC01DB0182
:100950000FB6F8940F9240916D0150916E012D9158
:100960003C9111972F3F8FEF380701F181819281E0
:1009700060916F017081761719F048175907C0F41C
:10098000481B590B4217530770F4241B350B2D934A
:100990003C9380916F01808380916D0190916E01F5
:1009A0009283818303C01D921C9202C080E001C02B
:1009B00081E00F900FBE08950F931F93CF93DF93A5
:1009C000DC011596ED91FC911697C681D7818E01B9
:1009D000045F1F4FC8010E94500B80916A01811172
:1009E00014C00A501109C8010E94500B8E899091C1
:1009F000B301981710F48093B301B9E08B9FC00145
:100A00001124B80181579E4F03C0B80186E891E0D8
:100A10000E94740BE091B501F091B6019E89868920
:100A2000891720F481E08093690101C080E0DF91A3
:100A3000CF911F910F9108958F929F92AF92BF9285
:100A4000CF92DF92EF92FF920F931F93CF93DF939A
:100A50000FB6F8940F9280916A01815080936A01D9
:100A600080916A01882311F080E0F2C08091B70183
:100A70008823D1F3C0E0D0E029E0F22EEE24E39405
:100A800080918601882351F1E0918B01F0918C01D6
:100A9000C681D781CE010C960E94500B8E010E5F4D
:100AA0001F4FC8010E94500B8E899091B301981777
:100AB00010F48093B301F89EC0011124B80181574E
:100AC0009E4F0E94740BE091B501F091B6019E8992
:100AD00086899817A8F2E0926901D2CFCD2B11F048
:100AE0000E949100E0906601EE2009F4A9C089E01F
:100AF000982E88248394CC24CA94DC2C80916A019B
:100B000081118CC0C0916D01D0916E012196D0935E
:100B10006E01C0936D012097B9F48091720190919C
:100B20007301209170013091710130937301209312
:100B30007201909371018093700180916F018F5FBA
:100B400080936F010E9491008091670190916801EC
:100B5000F12CC817D90708F451C0E0917201F09147
:100B600073018081811105C0D0926801C092670134
:100B700045C0E0917201F09173010580F681E02D8E
:100B800006811781D80112968D919C911397C817F1
:100B9000D90728F490936801809367012FC058010A
:100BA000B2E0AB0EB11CC5010E94500BF801848964
:100BB0009589892B21F0C8010C960E94500BD80111
:100BC00056968C919091B301981710F48093B301CD
:100BD000989EC0011124B50181579E4F0E94740B4D
:100BE000E091B501F091B601D80156969C918689A5
:100BF000981708F4B2CFFF24F394AFCFE091B5017A
:100C0000F091B601E6899E9EF0011124E157FE4F56
:100C10008081823048F0FF24F39406C08091660101
:100C20008F5F80936601F12C80916901811101C071
:100C3000F11080926901EA94E11060CF1092660190
:100C400080916901882309F40FCF0E94950B81E000
:100C50000F900FBEDF91CF911F910F91FF90EF90FA
:100C6000DF90CF90BF90AF909F908F90089580912C
:100C70006A018F5F80936A010895CF93DF93CDB7A8
:100C8000DEB72A970FB6F894DEBF0FBECDBFE09156
:100C90006401F0916501F080FF2031F00580F6815C
:100CA000E02D0081118102C000E010E00E943706B3
:100CB0000E94C9036C018091600190916101C81686
:100CC000D90620F40E94FD0381E001C080E0D092AB
:100CD0006101C0926001811175C0FF2089F1C016C9
:100CE000D106B0F10E941C05E0916401F09165010C
:100CF0000580F681E02DE680F780C70102960E940C
:100D0000500BD7011E968C911E97813089F41C964A
:100D10006D917C911D97600F711F9801A601C7010D
:100D20000E94D303882321F0B801C7010E94870DD8
:100D3000D7015196ED91FC915297C7010995C8C012
:100D4000E0916201F09163018081BB24B394811131
:100D5000B12CE0906B01F0906C010FB6F8940F92FB
:100D6000F701858D8F3F09F4158ED7015E968C9122
:100D70005E978F3F11F45E961C920F900FBEF701A5
:100D8000828D811115C06091B5017091B601645FCB
:100D90007F4FC70141960E94740BB11004C0C80177
:100DA0008C199D0902C08FEF9FEF6B2D0E944A04A2
:100DB000C7010E940B0B0E941C05811189C00E9473
:100DC000950B86C00E941C0583C0811109C08091CB
:100DD0006F018E8380916D0190916E0198878F8352
:100DE0000F900FBE0E9437060FB6F8940F92D801ED
:100DF0005D968C915D978F3F11F45D961C92F80182
:100E0000868D8F3F09F4168E0F900FBEBE01675F6F
:100E10007F4FCE0106960E94A6048111D5C0C8015D
:100E20000E94000B882309F4C9C0E984FA84609108
:100E3000B5017091B601645F7F4FC6010E94520CEC
:100E400061E0C7010E944A04C8010E940B0B0E9486
:100E50001C05882309F4AFC081E00FB6F8940F9207
:100E6000F801F28CFF2009F49EC0448D41113CC072
:100E7000FA94F801F28E8085811150C00F900FBE58
:100E8000D980D7FC25C00C811D81D8011A968D917F
:100E90009C911B97892B21F0C80102960E94500B50
:100EA0000E94C9037C018091600190916101E81664
:100EB000F90610F40E94FD03F0926101E0926001D6
:100EC0008D2DDD0C990BAA0BBB0B8A30910580F19F
:100ED00000916B0110916C011A86198680E06801FF
:100EE000B1E1CB0ED11CB9CF50E086819781840F40
:100EF000951F97838683248135818217930720F07D
:100F00008081918197838683D80116966D917C911B
:100F10001797CE0101960E94AC10AACFC80108967F
:100F20000E94DC04882309F4A9CF0E94950BA6CF68
:100F3000FC01EC5CFF4F0C94800FCA80DB80F80151
:100F4000648575856C0D7D1D9601A701C8010E9401
:100F5000D303882309F4BCCFD8015196ED91FC91BD
:100F60005297C8010995F8018685813009F0B0CF04
:100F7000648575856C0D7D1DC8010E94870DA8CF05
:100F80006A817B81D8011D967C936E931C976E0DB0
:100F90007F1D9701A701C8010E94D30399CFC80103
:100FA0000E94BE0D95CF29853A85232B09F00DCFE0
:100FB0000F900FBE6CCE0E94950B4ECFC8010E94C1
:100FC0000B0B0E941C0548CFC8010E940B0B0E940E
:100FD0001C05C8010E94000B882309F43DCF57CEA1
:100FE000CF93DF93EC01892B19F40E94950B0AC073
:100FF0000E94370660E0CE010E944A040E941C0550
:10100000882399F3DF91CF910895789484B5826015
:1010100084BD84B5816084BD85B5826085BD85B59C
:10102000816085BD80916E00816080936E0010921A
:101030008100809181008260809381008091810095
:101040008160809381008091800081608093800026
:101050008091B10084608093B1008091B000816084
:101060008093B00080917A00846080937A008091B0
:101070007A00826080937A0080917A008160809308
:101080007A0080917A00806880937A001092C10083
:101090000E94EC0104E511E020E040EC50E063E345
:1010A00071E08CEB91E00E94ED0D813009F0B4C04D
:1010B0000FB6F8940F9280916B0190916C01892B7F
:1010C00009F050C089E491E00E94B00D80E491E005
:1010D0000E94B00D89E491E09093650180936401D2
:1010E00080E491E0909363018093620181E590E058
:1010F0000E94CF0DEC01009789F14F969983888368
:101100008AE08B8F85E08C8F0FB6F8940F92488120
:1011100059818B8D6C8D9A01869F200D311D112474
:101120003D832C831A8E5B834A8390E00197689FEE
:101130009001699F300D1124CA01820F931F9F8374
:101140008E838FEF8D8F8E8FCE0108960E94B00D0B
:10115000CE0141960E94B00D0F900FBED0936C014E
:10116000C0936B010F900FBE80916B0190916C0149
:10117000892B09F451C002E511E023E045E550E078
:1011800068E371E08DE396E00E94ED0D813009F097
:1011900043C0F8942FEF3FEF30936801209367012D
:1011A0008093B40110926E0110926D01A89590EC9D
:1011B00088E10FB6F894A895809360000FBE9093D5
:1011C0006000A091B501B091B601CD91CDBFDD9188
:1011D000DEBFFF91EF91DF91CF91BF91AF919F91D2
:1011E0008F917F916F915F914F913F912F911F91BF
:1011F0000F91FF90EF90DF90CF90BF90AF909F90B6
:101200008F907F906F905F904F903F902F901F90A6
:101210000F900FBE0F9008950E94EC010E94B20142
:10122000FDCFE8EBF1E01382128288EE93E0A0E0BC
:10123000B0E084839583A683B7838AE091E09183AD
:10124000808385EC90E09587848784EC90E0978795
:10125000868780EC90E0918B808B81EC90E0938B83
:10126000828B82EC90E0958B848B86EC90E0978B60
:10127000868B118E128E138E148E08950F920FB6D8
:10128000F8940F921F9211242F923F924F925F92E7
:101290006F927F928F929F92AF92BF92CF92DF9286
:1012A000EF92FF920F931F932F933F934F935F9370
:1012B0006F937F938F939F93AF93BF93CF93DF935E
:1012C000EF93FF93A091B501B091B6010DB60D92C9
:1012D0000EB60D9213BE80916A018111F3C0809108
:1012E0006D0190916E01019690936E0180936D0156
:1012F000009799F52091720130917301409170012E
:1013000050917101509373014093720130937101B8
:101310002093700120916F012F5F20936F01E09166
:101320007201F09173012081211107C02FEF3FEF6F
:10133000309368012093670110C0E0917201F09131
:1013400073010580F681E02D0680F781E02D228172
:1013500033813093680120936701209167013091B8
:1013600068018217930708F49CC020E019E0E0911F
:101370007201F09173013081311107C08FEF9FEF3F
:1013800090936801809367018DC0E0917201F091A4
:1013900073010580F681E02D0680F781E02D428102
:1013A00053818417950728F450936801409367018F
:1013B00079C0AF014E5F5F4FA285B38564817581AF
:1013C000E680F780EB01FD82EC82C681D7817B83CA
:1013D0006A8311966D917C9112974617570721F4F5
:1013E0001296DC93CE931197138612863C9131505E
:1013F0003C933C91A489B5891097F9F0668577856F
:10140000E088F188EB01FD82EC82C089D1897B8381
:101410006A831196ED90FC901297BF01645F7F4F35
:10142000E616F70621F41296DC93CE931197158AEF
:10143000148A3C9131503C933C91A6893091B30180
:101440003A1710F4A093B3011A9FD0011124BD01E3
:1014500061577E4F7B01DB011196CD91DC91129794
:10146000D583C4836C817D81778366836C817D8124
:10147000DB0113965C934E9312975D834C83F38646
:10148000E286E70138813F5F3883A091B501B091D2
:10149000B601468956963C91431708F468CF21E07F
:1014A00066CF20E0E091B501F091B601E689D9E080
:1014B000ED9FF0011124E157FE4F8081823040F012
:1014C00021E006C0809166018F5F8093660120E075
:1014D00080916901811103C0222309F466C08091C3
:1014E0006A01882321F081E0809369015EC0109237
:1014F0006901A091B501B091B601E091B501F091FB
:10150000B6012D913C918789908D82179307A8F0A1
:101510008091B5019091B6018091B5019091B6018D
:10152000259A2D9A2FEF67EA71E6215060407040AE
:10153000E1F700C000001D9AF5CF8091B30169E08A
:1015400001C08150482F50E0649F9001659F300D8D
:101550001124F901E157FE4F9081992391F3A18164
:10156000B28112960D90BC91A02DB283A1832E560C
:101570003E4FA217B30731F412962D913C91139769
:101580003283218399E0949FF001959FF00D1124FF
:10159000E157FE4F0180F281E02D268137813093A3
:1015A000B6012093B5018093B301A091B501B0912C
:1015B000B601CD91CDBFDD91DEBFFF91EF91DF91FF
:1015C000CF91BF91AF919F918F917F916F915F91DB
:1015D0004F913F912F911F910F91FF90EF90DF90CE
:1015E000CF90BF90AF909F908F907F906F905F90C3
:1015F0004F903F902F901F900F900FBE0F90089527
:101600000FB6F8940F92FC01928D0F900FBE81E0FF
:10161000911180E00895EF92FF920F931F93CF9363
:10162000DF93EC010FB6F8940F921E8D7C0181E1DF
:10163000E80EF11C01E011165CF48989882341F061
:10164000C7010E94DC048111009369011150F3CF9E
:101650008FEF8E8F0F900FBE0FB6F8940F921D8DE7
:101660007E0188E0E80EF11C01E011165CF488852B
:10167000882341F0C7010E94DC04811100936901B5
:101680001150F3CF8FEF8D8F0F900FBEDF91CF9161
:101690001F910F91FF90EF9008950E943E091895B9
:1016A000CF93DF93FC01A085B18582819381248152
:1016B0003581EC013D832C83C481D5819B838A8352
:1016C00011968D919C911297E817F90721F41296C3
:1016D000DC93CE931197118610868C9181508C9358
:1016E0008C91DF91CF910895CF93DF939C01FB0103
:1016F000DC011196CD91DC911297D383C2838C814A
:101700009D81958384838C819D81DC0113967C93DC
:101710006E9312977D836C8331872087F9018081D6
:101720008F5F8083DF91CF9108950F920FB6F89469
:101730000F921F9211242F923F924F925F926F92BD
:101740007F928F929F92AF92BF92CF92DF92EF9251
:10175000FF920F931F932F933F934F935F936F933A
:101760007F938F939F93AF93BF93CF93DF93EF9329
:10177000FF93A091B501B091B6010DB60D920EB6D2
:101780000D9280916A01882321F081E080936901A4
:101790005EC010926901A091B501B091B601E091CF
:1017A000B501F091B6012D913C918789908D8217FA
:1017B0009307A8F08091B5019091B6018091B50191
:1017C0009091B601259A2D9A2FEF87EA91E6215044
:1017D00080409040E1F700C000001D9AF5CF809155
:1017E000B30169E001C08150482F50E0649F90012F
:1017F000659F300D1124F901E157FE4F9081992327
:1018000091F3A181B28112960D90BC91A02DB2836B
:10181000A1832E563E4FA217B30731F412962D9195
:101820003C9113973283218399E0949FF001959F17
:10183000F00D1124E157FE4F0180F281E02D268149
:1018400037813093B6012093B5018093B301A09105
:10185000B501B091B601CD91CDBFDD91DEBFFF9155
:10186000EF91DF91CF91BF91AF919F918F917F9138
:101870006F915F914F913F912F911F910F91FF9029
:10188000EF90DF90CF90BF90AF909F908F907F9020
:101890006F905F904F903F902F901F900F900FBED2
:1018A0000F9008950F931F93CF93DF938C01FB014B
:1018B000808191818F3F2FEF920721F4E801AF8162
:1018C000B8850EC0D801139612962D913C911397AE
:1018D000E901488159818417950710F0D901F4CFA7
:1018E00012968D919C91139793838283EC01FD83D3
:1018F000EC83B583A4831396FC93EE931297118720
:101900000087F80180818F5F8083DF91CF911F91E5
:101910000F910895AF92BF92CF92DF92EF92FF9214
:101920000F931F93CF93DF9300D000D01F92CDB7BA
:10193000DEB78C017B011D821C8280E0680198E08B
:10194000C90ED11C0FB6F8940F92F801228D938D19
:10195000291708F06DC0D28C448D41113FC08081A1
:101960009181892B09F052C0F801E480F580E114DF
:10197000F10411F480E02EC0F70182A1815082A30E
:10198000268991A12917B1F38111F4CF5701F2E013
:10199000AF0EB11CC5010E94500BF70181A1868BCF
:1019A000482F50E024E030E0241B350B3587248796
:1019B0009091B301981710F48093B30129E0249F0C
:1019C000C001259F900D1124B50181579E4F0E94A3
:1019D000740B81E0F8011582148219C050E0B70140
:1019E000F801828193810E94AC10F801248D8281DC
:1019F0009381820F911D9383828324813581821785
:101A0000930720F0808191819383828380E0D39437
:101A1000F801D28E9189992321F0C80141960E9444
:101A2000DC0481110E94950B0F900FBE81E05FC016
:101A30002C813D81232B19F40F900FBE57C08111CB
:101A400009C080916F01898380916D0190916E0131
:101A50009B838A830F900FBE0E9437060FB6F894BF
:101A60000F92F801858D8F3F09F4158EF801868D50
:101A70008F3F09F4168E0F900FBEBE016C5F7F4F33
:101A8000CE0101960E94A60481112BC00FB6F894D6
:101A90000F92F801928D838D0F900FBE98131BC08B
:101AA000AC80BD806091B5017091B601645F7F4FDD
:101AB000C6010E94520C61E0C5010E944A04C8019F
:101AC0000E940B0B0E941C05882311F081E03ACF85
:101AD0000E94950BFBCFC8010E940B0B0E941C05B6
:101AE000F5CFC8010E940B0B0E941C0580E00F90EF
:101AF0000F900F900F900F90DF91CF911F910F914A
:101B0000FF90EF90DF90CF90BF90AF900895CF936C
:101B1000DF9300D000D01F92CDB7DEB79C0180913B
:101B20006B0190916C01009761F019827B836A834D
:101B30003D832C832091B401222329F020916A0156
:101B400002C080E005C0BE016F5F7F4F0E948A0C1B
:101B50000F900F900F900F900F90DF91CF910895FD
:101B6000FC010396928381832FEF3FEF348323831D
:101B7000968385839087878310820895CF93DF9320
:101B8000009751F0EC010E943706CE010E941E1012
:101B9000DF91CF910C941C05DF91CF910895CF93E5
:101BA000DF93EC010E943706CE010E94860FEC0104
:101BB0000E941C05209769F4259A2D9A2FEF80E743
:101BC00092E0215080409040E1F700C000001D9A53
:101BD000F5CFCE01DF91CF9108957F928F929F92A2
:101BE000AF92BF92CF92DF92EF92FF920F931F932B
:101BF000CF93DF93982EC92E762E872EEA01D22E10
:101C0000CA010E94CF0D5C01892B09F448C188E20A
:101C100090E00E94CF0D7C010097D9F0DC0158962E
:101C2000BC92AE925797AE0165EA70E0C5010E9482
:101C3000B5102197D7015796ED91FC915897EC0F6D
:101C4000FD1FB701675E7F4FA72DB82DCD01089608
:101C500007C0C5010E94BE0D22C1A817B90749F0EF
:101C60009D014D91EB014993BE01E90128812111AC
:101C7000F4CFD70190961C922D2D243008F023E04C
:101C8000E7012E8B29A31AA21B861A861D8A1C8A9D
:101C9000F986E88684E090E0821B91099D878C8715
:101CA000FB8AEA8A1BA21CA21DA21EA21FA291E10E
:101CB0009083DF01119782E28C93119723E32C9399
:101CC00011979C921197CC9211971C92119720E832
:101CD0002C9311971C92119722E02C93119723E0DB
:101CE0002C93119724E02C93119725E02C931197B6
:101CF00026E02C93119727E02C93119728E02C9342
:101D0000119729E02C93119720E12C9311979C9324
:101D1000119792E19C93119793E19C93119794E111
:101D20009C93119795E19C93119796E19C93119741
:101D300097E19C93119798E19C93119799E19C935B
:101D4000119790E29C93119791E29C9311978C9339
:101D5000119783E28C9311971C9211971C92119703
:101D600086E28C93119787E28C93119788E28C938B
:101D7000119789E28C93119780E38C93119781E3FB
:101D80008C93B697F983E8830115110519F0F801D2
:101D9000F182E0820FB6F8940F928091B7018F5FC5
:101DA0008093B7018091B5019091B601892BD1F54F
:101DB000F092B601E092B5018091B701813009F04F
:101DC00043C08FE891E00E94B00D88E991E00E9445
:101DD000B00D81EA91E00E94B00D8AEA91E00E9484
:101DE000B00D8EE592E00E94B00D85E592E00E9474
:101DF000B00D86E891E00E94B00D8DE791E00E9461
:101E0000B00D84E791E00E94B00D8EE592E09093D2
:101E100073018093720185E592E090937101809344
:101E2000700112C08091B40181110EC0E091B50122
:101E3000F091B6019689D70156968C91891720F0BA
:101E4000F092B601E092B501809167028F5F8093B6
:101E50006702E7018E899091B301981710F480937F
:101E6000B301D9E08D9FC0011124B7016E5F7F4F90
:101E700081579E4F0E94740B0F900FBE8091B4014A
:101E8000882359F0E091B501F091B6019689F701E8
:101E90008689981710F40E94950B81E001C08FEF9E
:101EA000DF91CF911F910F91FF90EF90DF90CF9036
:101EB000BF90AF909F908F907F900895A1E21A2ECF
:101EC000AA1BBB1BFD010DC0AA1FBB1FEE1FFF1FDE
:101ED000A217B307E407F50720F0A21BB30BE40B2E
:101EE000F50B661F771F881F991F1A9469F7609575
:101EF0007095809590959B01AC01BD01CF0108952F
:101F0000EE0FFF1F0590F491E02D09940F931F939E
:101F1000CF93DF938230910510F482E090E0E0915E
:101F20006A02F0916B0220E030E0A0E0B0E0309770
:101F300019F1408151810281138148175907C8F076
:101F40008417950769F4109731F012960C93129745
:101F500013961C9327C000936A0210936B0222C051
:101F60002115310519F04217530718F49A01BD01E4
:101F7000EF01DF01F801DBCF21153105F9F0281B56
:101F8000390B2430310580F48A819B8161157105FC
:101F900021F0FB019383828304C090936B028093B2
:101FA0006A02FE01329644C0FE01E20FF31F8193E4
:101FB000919322503109398328833AC020916802D5
:101FC00030916902232B41F42091020130910301E9
:101FD0003093690220936802209100013091010141
:101FE0002115310541F42DB73EB7409104015091C0
:101FF0000501241B350BE0916802F0916902E2179C
:10200000F307A0F42E1B3F0B2817390778F0AC011B
:102010004E5F5F4F2417350748F04E0F5F1F5093F8
:102020006902409368028193919302C0E0E0F0E07E
:10203000CF01DF91CF911F910F910895CF93DF933F
:10204000009709F481C0FC01329713821282A0919B
:102050006A02B0916B02109781F420813181820F66
:10206000931F20916802309169022817390751F5B2
:10207000F0936902E093680267C0ED0120E030E070
:10208000CE17DF0740F44A815B819E01411551055F
:10209000F1F0EA01F5CFD383C28340815181840FEF
:1020A000951FC817D90759F488819981840F951F06
:1020B0000296918380838A819B81938382832115F9
:1020C000310529F4F0936B02E0936A023DC0E90107
:1020D000FB83EA8349915991C40FD51FEC17FD0783
:1020E00061F480819181840F951F0296E9019983A3
:1020F0008883828193819B838A83E0E0F0E012965B
:102100008D919C911397009719F0FD01DC01F7CF99
:102110008D919C9111979D012E5F3F4F820F931FD0
:1021200020916802309169022817390769F43097C5
:1021300029F410926B0210926A0202C0138212827A
:10214000B0936902A0936802DF91CF91089581E076
:1021500090E0F8940C94BC10FB01DC0102C00190EB
:102160000D9241505040D8F70895DC0101C06D93A5
:0C21700041505040E0F70895F894FFCF74
:10217C0000006C028000000000004301AC00DA009B
:10218C0090010B01E900FD00426C696E6B00416E21
:10219C00616C6F67526561640048656C6C6F2E00F2
:1021AC000D0A0049444C4500546D7220537663006F
:00000001FF
